:100000000C9434000C9451000C9451000C94510049
:100010000C9451000C9451000C9451000C94540316
:100020000C9451000C9451000C9451000C9451000C
:100030000C9451000C9451000C9451000C945100FC
:100040000C9451000C9451000C947A020C945100C1
:100050000C9451000C9451000C9451000C945100DC
:100060000C9451000C94510011241FBECFEFD8E026
:10007000DEBFCDBF11E0A0E0B1E0E2EBF9E002C0ED
:1000800005900D92A237B107D9F721E0A2E7B1E0C0
:1000900001C01D92AA3CB207E1F70E94A6040C948D
:1000A000D7040C940000109281011092820163E049
:1000B0008BE290E00E94ED0162E08BE290E00E9412
:1000C000F70110927B01ECE7F1E085E0DF011D9282
:1000D0008A95E9F70E94EA026093770170937801AC
:1000E0008093790190937A01089563E08AE290E029
:1000F0000E94D80162E08AE290E00E94D80144E0C8
:1001000065E270E084E290E00E9403020E947703BF
:100110000E94DE0260E875E280E090E00E942C021E
:1001200085E291E00E9459020C945300CF92DF9235
:10013000EF92FF92CF938091810190918201813063
:10014000910509F466C08230910509F40DC1892B2F
:1001500009F028C163E08BE290E00E94ED0162E0CB
:100160008BE290E00E94F70164E083E290E00E945D
:100170002202811117C10E94EA026B017C010E94D8
:10018000EA026C197D098E099F096E31710581059E
:100190009105A8F364E083E290E00E9422028111BD
:1001A00001C181E090E0809381011092820163E0BF
:1001B0008BE20E94ED0162E08BE290E00E94F70189
:1001C00081E08093720110927B01ECE7F1E085E021
:1001D000DF011D928A95E9F70E94EA026093770198
:1001E000709378018093790190937A010E94EA02DA
:1001F00060937301709374018093750190937601FD
:100200008AE391E0CF91FF90EF90DF90CF900C9434
:1002100059020E94EA026B017C0180917301909166
:100220007401A0917501B09176019601A701281B78
:10023000390B4A0B5B0BC901DA018C329140A105E5
:10024000B105A8F08091720163E0811509F46AC0DC
:100250008BE290E00E94F70180E080937201C092EF
:100260007301D0927401E0927501F0927601809151
:10027000770190917801A0917901B0917A01C81A23
:10028000D90AEA0AFB0A85E491E048E8C41643E18A
:10029000D406E104F104E8F50E94BB03C82F8115E0
:1002A00009F480C062E08BE290E00E94ED010E94C0
:1002B000EA026B017C010E94EA026C197D098E0939
:1002C0009F096035710581059105A8F362E08BE215
:1002D00090E00E94F70180ED8C0F8A3008F062C038
:1002E00080917B01E82FF0E0E458FE4FC0838F5FE0
:1002F00080937B01843008F455C01092800160E047
:1003000071E08CE791E00E94CE04892B89F08EE4A5
:1003100091E00E945902CF91FF90EF90DF90CF9033
:100320000C9453008BE290E00E94ED0181E095CFA8
:1003300082E090E0809381011092820163E08BE281
:100340000E94F70162E08BE290E00E94ED010E94C2
:10035000EA0260937701709378018093790190931A
:100360007A0189E591E04ECF63E08BE290E00E9454
:10037000F70162E08BE290E00E94ED010E94EA0248
:10038000C0907701D0907801E0907901F0907A01E7
:100390006C197D098E099F09683B7B408105910599
:1003A00008F0B9CFCF91FF90EF90DF90CF900895F4
:1003B000FC01908121E001C0220F6A95EAF7922B9F
:1003C00090830895FC01408121E001C0220F6A95CD
:1003D000EAF72095242320830895FC01908121E0F1
:1003E00001C0220F6A95EAF7922B908308950C942E
:1003F000E201FC01908121E001C0220F6A95EAF739
:10040000922790830895CF93DF9300D00F92CDB7BA
:10041000DEB76A837B834983642F0E94E201EA810D
:10042000FB81408161E070E0098002C0660F771FA8
:100430000A94E2F7462B40830F900F900F90DF91C4
:10044000CF910895FC01808190E002C09695879538
:100450006A95E2F781700895CF93DF939B01AC0119
:1004600084E0220F331F441F551F8A95D1F760E0A7
:1004700074E284EF90E00E94AC04E901219783E8E4
:1004800091E00E94A202D093C500C093C4001092D4
:10049000C00088E98093C10086E08093C200DF91AC
:1004A000CF9108959091C00095FFFCCF8093C60036
:1004B0000895CF93DF93EC018881811103C0DF9110
:1004C000CF91089521968A3019F48DE00E9452024E
:1004D000FE0182910E945202EFCFF894BC0183E8A2
:1004E00091E00E94C90278940895F8948091850162
:1004F000789408951F920F920FB60F9211242F93A4
:100500003F934F935F936F937F938F939F93AF939B
:10051000BF93EF93FF936091C60083E891E00E9440
:10052000B402FF91EF91BF91AF919F918F917F9115
:100530006F915F914F913F912F910F900FBE0F9050
:100540001F901895FC011082118212820895FC01FF
:10055000928181E0911180E00895FC01928181E017
:10056000903408F480E00895FC018281803478F4AE
:10057000A081AE0FBF2FB11D13966C9380818F5F4A
:100580008F73808382818F5F828381E0089580E012
:100590000895FC018281811581F0A181AE0FBF2FEA
:1005A000B11D13968C91DB018C9381818F5F8F73CA
:1005B000818382818150828381E0089582E08093EB
:1005C000B00094E09093B1008093700089EF809325
:1005D000B30008952FB7F8946091C6017091C701D8
:1005E0008091C8019091C9012FBF0895E4E6F0E021
:1005F00080818F7B8083E0E78081826080830895A3
:10060000E0E7F0E080818D7F8083E4E68081806494
:10061000808308958FB7F8941092C6011092C70195
:100620001092C8011092C9018FBF0895EFB7F894D6
:100630002091C6013091C7014091C8015091C90174
:10064000DC01CB01820F931FA41FB51F8093C6014D
:100650009093C701A093C801B093C901EFBF08955B
:10066000EF92FF920F931F93EFB7F8942091C6017A
:100670003091C7014091C8015091C90179018A01A7
:10068000E61AF70A080B190BC701D8018093C601B7
:100690009093C701A093C801B093C901EFBF1F9108
:1006A0000F91FF90EF9008951F921FB61F92112493
:1006B0008F939F93AF93BF938091C6019091C70191
:1006C000A091C801B091C9010196A11DB11D8093EF
:1006D000C6019093C701A093C801B093C901BF910F
:1006E000AF919F918F911F901FBE1F90189563E04F
:1006F00084E290E00E94D80162E084E290E00E94EF
:10070000D80161E084E290E00E94D80160E084E2D8
:1007100090E00E94D80163E085E290E00E94ED0144
:1007200062E085E290E00E94ED0161E085E290E008
:100730000E94ED0160E085E290E00E94ED0147E05B
:100740006BE270E08AE290E00E94030246E06BE216
:1007500070E08AE290E00E94030245E06BE270E004
:100760008AE290E00E94030244E06BE270E08AE2D9
:1007700090E00C9403022F923F924F925F926F92FF
:100780007F928F929F92AF92BF92CF92DF92EF9221
:10079000FF920F931F93CF93DF93CDB7DEB7A09750
:1007A0000FB6F894DEBF0FBECDBF88E0E5E0F1E004
:1007B000DE01199601900D928A95E1F78091690109
:1007C00090916A01A0916B01B0916C018D8B9E8B11
:1007D000AF8BB88F28E0EDE0F1E0CE010196DC01AF
:1007E00001900D922A95E1F740916D0150916E01B3
:1007F00060916F0170917001498B5A8B6B8B7C8B70
:100800003E0125E1620E711C2E0139E0430E511CA0
:1008100000E010E08B8F9C8F63E085E290E00E9407
:10082000ED0162E085E290E00E94ED0161E085E289
:1008300090E00E94ED0160E085E290E00E94ED0111
:10084000F301F081F98FF201C080D180698DC6017A
:100850000E94F7015E01F1E1AF0EB11C8B8C9C8C04
:10086000E12CF12CF501F081FA8FF4012080318028
:100870006A8DC1010E942202811148C00E94EA02D1
:100880006D8F7E8F8F8F98A30E94EA022D8D3E8DF3
:100890004F8D58A1621B730B840B950B6E31710544
:1008A0008105910588F36A8DC1010E9422028111A0
:1008B0002DC06A8DC1010E9422028115D1F3698D7C
:1008C000C6010E94ED01000F111F000F111F0B5EEA
:1008D0001E4FF801EE0DFF1D8081A0960FB6F89413
:1008E000DEBF0FBECDBFDF91CF911F910F91FF9063
:1008F000EF90DF90CF90BF90AF909F908F907F90C0
:100900006F905F904F903F902F9008953FEFA31A04
:10091000B30A42E0840E911C5FEFE51AF50A84E009
:10092000E816F10409F09ECFEFEF6E1A7E0AF2E0AE
:100930004F0E511C698DC6010E94ED010F5F1F4FC4
:100940000430110509F068CF80E0C7CF0E94750020
:1009500078940E949600FDCFA1E21A2EAA1BBB1B21
:10096000FD010DC0AA1FBB1FEE1FFF1FA217B3077B
:10097000E407F50720F0A21BB30BE40BF50B661F91
:10098000771F881F991F1A9469F760957095809555
:1009900090959B01AC01BD01CF010895FB01DC01E5
:1009A0008D91019080190110D9F3990B0895F89455
:0209B000FFCF77
:1009B200313737320025002500250025002900297E
:1009C2000029002900313233413435364237383973
:1009D200432A3023444163636573732073797374CC
:1009E200656D2072656164790A00456E74657220D6
:1009F20050494E0A0054696D656F75740A0057724A
:100A02006F6E672050494E0A00416363657373201D
:100A12006772616E7465640A0003020100070605CD
:020A22000400CE
:00000001FF
